:10000000A6EF02F00000000000EF00F0000000008A
:0A0010000000000000000000F3D71C
:10001C000F0E0C6E470E0D6E0D2EFED70C2EFCD750
:06002C00000000001200BC
:0A003200210E0D6E0D2EFED71200F8
:06003C00000000001200AC
:1000420075BE02D0819401D0818475BC02D08196A4
:1000520001D0818675BA02D0819801D0818875B8A5
:1000620002D0829A01D0828A58B002D0818201D015
:1000720081928180E2DF819075B602D0819401D0B5
:10008200818475B402D0819601D0818675B202D086
:10009200819801D0818875B002D0829A01D0828A7B
:1000A20058B002D0818201D081928180C6DF8190D6
:0C00B20058A002D0B2DF01D0BBDF12006A
:1000BE00086A096A100E0C6E0134083609360450AF
:1000CE00085E0550D8A0053C095ED8B007D0045094
:1000DE0008260550D8B0053C0926D89000360136C2
:0600EE000C2EEAD71200FF
:0C00F400589074C075F0A3DF5880120013
:10010000716A050E715C0AE271506F24E16E000E97
:100110007020E26E200EE66E712AF3D771506F24C4
:10012000E16E000E7020E26EE66A710671506F2477
:10013000726E000E7020736E0A0E046E000E056E55
:100140006DC000F06EC001F0BADF08C000F009C059
:1001500001F0300E002672C0E1FF73C0E2FF00C064
:10016000E6FF0A0E046E000E056E6DC000F06EC054
:1001700001F0A5DF00C06DF001C06EF0000E0118A7
:1001800002E1000E001801E102D07106CFD7120083
:100190000FD0800E6D6E19D0C00E6D6E16D0940EFD
:1001A0006D6E13D0D40E6D6E10D0800E6D6E0DD0AE
:1001B0006D50010AEEE06D50020AEEE06D50030A48
:1001C000EEE06D50040AEEE0F0D76E04006E6D5064
:1001D000002600C06DF000C075F033DF5890716AE2
:1001E00071506F24E96E000E7020EA6EEE520BE043
:1001F00071506F24E96E000E7020EA6EEECF74F03D
:0A02000079DF712AEDD75880120053
:10020A0093909392949A93989396939481908192CF
:10021A00819481968198829AFCDEFBDEFADE8188DF
:10022A00828A818006DF8190F4DE818002DF8190FC
:10023A00F0DE8180FEDE8190ECDE829A8180F9DE3A
:10024A008190E7DE8180F5DE8190819881848180CA
:10025A00F0DE8190DEDE8194828A8180EADE8190FE
:10026A00829A8180E6DE8190D4DE8180E2DE81900E
:10027A00828A8180DEDE8190CCDE829A8180D9DE1C
:10028A008190818481868188828A8180D2DE819070
:06029A00C0DE58801200D6
:1002A0006F6A706A6DC003F06EC004F06DC005F037
:1002B0006EC006F003C0E9FF04C0EAFFEE50200A5A
:1002C00004E16F50701001E110D0010E6F6E000E4E
:1002D000706E03C0E9FF04C0EAFF05C0E1FF06C07D
:1002E000E2FFEECFE6FF054A062A03C001F004C094
:1002F00002F0034A042A01C0E9FF02C0EAFFEE50FF
:0E030000000AD8E16DC000F06EC001F01200DE
:10030E000900F5CFE6FF0006FBE10106F9E1120058
:10031E000F0EC16E9496938A9590959296866EDF87
:10032E00010E756E87DE0C0E756E84DE010E6D6E1F
:10033E00010E6E6E500E6F6E000E706E22DF0B0E83
:10034E000B6E260E0C6E5D0E0D6E0D2EFED70C2E48
:10035E00FCD70B2EFAD700000000010E756E6ADE78
:10036E00010E6D6E010E6E6E450E6F6E000E706E8E
:10037E0008DF0B0E0B6E260E0C6E5D0E0D6E0D2E27
:10038E00FED70C2EFCD70B2EFAD700000000838070
:10039E0083820B0E0B6E260E0C6E5D0E0D6E0D2EE9
:1003AE00FED70C2EFCD70B2EFAD700000000839040
:1003BE0083920B0E0B6E260E0C6E5D0E0D6E0D2EB9
:1003CE00FED70C2EFCD70B2EFAD700000000030E22
:1003DE000C6E970E0D6E0D2EFED70C2EFCD7000058
:0603EE000000CD6A1200C0
:1003F400CF6ACE6A8286060E0D6E0D2EFED70000E1
:10040400829681BA01D0FDD7CD8081AA01D0FDD7D3
:10041400CD90CFCF01F0006ACE500026000E01220D
:1004240000C063F001C064F03A0E046E000E056E65
:1004340044DE00C061F001C062F062326132629E4B
:1004440063C06DF064C06EF0650E6F6E000E706E6A
:1004540055DE61C06DF062C06EF0590E6F6E000E15
:10046400706E4CDE650E6D6E000E6E6E17DF590EEB
:100474006D6E000E6E6E12DF000E625C02E10A0EFB
:10048400615C2EE36250010802E16150900828E3A8
:10049400010E756ED4DD020E6D6E010E6E6E1F0EB2
:1004A4006F6E000E706E72DE020E6D6E010E6E6E59
:1004B400150E6F6E000E706E69DE020E6D6E060E06
:1004C4006E6E650E6F6E000E706E60DE020E6D6EE7
:1004D4000B0E6E6E590E6F6E000E706E57DE33D0BB
:1004E400010E756EACDD8390030E6D6E030E6E6EA1
:1004F400250E6F6E000E706E49DE8382020E0B6E47
:10050400040E0C6EBA0E0D6E0D2EFED70C2EFCD7FB
:100514000B2EFAD70000030E6D6E030E6E6E350EB1
:100524006F6E000E706E32DE8392020E0B6E040E3E
:100534000C6EBA0E0D6E0D2EFED70C2EFCD70B2EA4
:08054400FAD70000D1D7120024
:0C054C00CEEC02F0E6DE50DFFED7FFD759
:10059C0010EE15F0430E006E010E016E580EF66E45
:0E05AC00050EF76E000EF86E87EC01F01200DF
:0A05580064697374616E63653D0011
:0605620074696D653D00A7
:100568004F5554204F462052414E474521212100E6
:100578002020202020202020202020202020200093
:0B058800756C747261736F6E69630024
:0805930077656C636F6D650074
:020000040030CA
:0D000100021F1EFF8381FF0FC00FE00F40A4
:00000001FF
